:10000000002000105D010000DD010000E3010000A0
:10001000000000000000000000000000E3DAFFEF35
:10002000000000000000000000000000E9010000E6
:100030000000000000000000EF010000F5010000DA
:10004000FB010000FB010000FB010000FB010000C0
:10005000FB010000FB010000FB010000FB010000B0
:10006000FB010000FB010000FB010000FB010000A0
:10007000FB01000061020000FB010000FB01000029
:10008000FB010000FB010000FB010000FB01000080
:10009000FB010000FB010000000000000000000068
:1000A000FB010000FB010000FB010000000000005C
:1000B000FB010000FB010000FB010000FB01000050
:1000C00098070000000100100000000098070000E1
:1000D00000000010000000000001001004000000FB
:1000E000000000100000000080B588B000AFF8608C
:1000F000B9607A60BB68FB61FB68BB6100237B6110
:100100000AE0FB691A1DFA61BA69111DB96112682A
:100110001A607B6904337B617A697B689A42F0D309
:10012000C046BD4608B080BD80B584B000AF7860E1
:1001300039607B68FB600023BB6007E0FB681A1D29
:10014000FA6000221A60BB680433BB60BA683B687F
:100150009A42F3D3C046BD4604B080BD80B584B09A
:1001600000AF1B4BFB6014E0FB681A1DFA601B68B4
:10017000BB60FB681A1DFA601B687B60FB681A1D78
:10018000FA601B683B603A687968BB681800FFF743
:10019000ABFFFA680F4B9A42E6D30FE0FB681A1DDB
:1001A000FA601B687B60FB681A1DFA601B683B6085
:1001B0003A687B6811001800FFF7B6FFFA68064B33
:1001C0009A42EBD300F0A2F800F082FAFEE7C046B4
:1001D000C0000000D8000000E800000080B500AFBB
:1001E000FEE780B500AFFEE780B500AFFEE780B563
:1001F00000AFFEE780B500AFFEE780B500AFFEE7D9
:1002000080B500AF00F08AF8A023DB0507220021AB
:10021000180000F031F8A023DB05082200211800A7
:1002200000F02AF8A023DB0509220021180000F0C5
:1002300023F8A023D80500230722002100F046F868
:10024000A023D80500230822002100F03FF8A023B6
:10025000D80500230922002100F038F8E9E7FFFF64
:1002600080B500AF034B1B689B685B689847C0462E
:10027000BD4680BDF81FFF1F80B584B000AFF86099
:10028000B960FB1D1A7010490F4A8023D3584022D1
:10029000134380228B50BB681B04FA68D218BB68DA
:1002A0001B04F968C91880231B02C958FB1D1B7861
:1002B000012098400300194380231B02D150C046FF
:1002C000BD4604B080BDC0460080044080B584B007
:1002D00000AFF860B9601900FB1D1A70BB1D0A1C45
:1002E0001A70BB681B04FA68D318FA1D1278012132
:1002F00091400A00B91D0878F91D0978884001006D
:100300009200D150C046BD4604B080BD80B500AF5C
:1003100000F070F9C046BD4680BDFFFF80B500AF5C
:1003200000F0EEF80200024B1A60C046BD4680BDE8
:100330000001001080B500AF024B1B681800BD46DD
:1003400080BDC0465407000080B500AF014B1800C7
:10035000BD4680BD001BB70080B584B000AF78609B
:100360007B685B09DAB20F23FB180F210A401A7071
:100370007B681F221340BB600F23FB181A78074BC2
:100380009200D258BB6801335B001900100000F0E6
:10039000A6F903001800BD4604B080BD5807000050
:1003A00080B584B000AF786039607B681F2213404D
:1003B0000133FB603B68FA6853431800BD4604B044
:1003C00080BDFFFF80B582B000AF0200FB1D1A7038
:1003D000064BFA1D12781A64044B00225A64034B30
:1003E00001225A64C046BD4602B080BD0080044070
:1003F00080B582B000AF0200FB1D1A70064BFA1DDB
:1004000012781A67044B00225A67034B01225A677D
:10041000C046BD4602B080BD0080044080B500AF3C
:10042000044B5B6A1800FFF797FF03001800BD46F6
:1004300080BDC0460080044080B582B000AF0D4B47
:100440001B6CDBB21A000323134002D0012B05D032
:1004500009E0FFF779FF03007B6006E0FFF76AFF22
:1004600003007B6001E000237B607B681800BD46D1
:1004700002B080BD00800440B0B500AF064B9C6860
:10048000FFF7DAFF030019002000FFF789FF0300E0
:100490001800BD46B0BDC0460080044080B582B0A3
:1004A00000AF00237B60154B1B6FDBB21A000323E8
:1004B0001340012B0DD002DC002B05D018E0022BDD
:1004C0000CD0032B0FD013E0FFF73EFF03007B603F
:1004D0000EE0FFF7B1FF03007B6009E0FFF79EFF2E
:1004E00003007B6004E0FFF7C7FF03007B60C046AA
:1004F0007B681800BD4602B080BDC0460080044045
:1005000080B500AFFFF7CAFF0200054B9B6F1900D3
:10051000100000F0E4F803001800BD4680BDC0469E
:100520000080044080B584B000AF0200FB1D1A704B
:10053000074B1B6903229343FB60054BFA1D11789F
:10054000FA680A431A61C046BD4604B080BDC04681
:1005500000C0034080B582B000AF0200FB1D1A70DE
:10056000BB1D0A1C1A70084BFA1D12781F2111407E
:10057000BA1D12785201602002400A439A60C046B8
:10058000BD4602B080BDC0460080044080B500AFCB
:10059000044BDB68012213405A1E9341DBB2180062
:1005A000BD4680BD0080044080B582B000AF786059
:1005B000034B7A689A67C046BD4602B080BDC0460C
:1005C0000080044080B582B000AF0200FB1D1A70AD
:1005D0000749074A8023D358FA1D1278012090401A
:1005E0000200134380228B50C046BD4602B080BD3E
:1005F0000080044080B500AF022000F049F80120DF
:1006000000F046F80020FFF7DDFE802000F020F823
:1006100001210320FFF79EFF802000F039F8C0463B
:10062000FFF7B4FF03001A0001235340DBB2002B95
:10063000F6D10120FFF7B8FF0220FFF773FF032078
:10064000FFF7D6FE1020FFF7BDFFC046BD4680BDB8
:1006500080B584B000AF78600C4A8E239B00D358DD
:10066000FF221340FB607B68FF221340FA681343AC
:10067000FB600649FB68ED2212021A438E239B00A1
:10068000CA50C046BD4604B080BDC046008004408C
:1006900080B584B000AF78600C4A8E239B00D3589D
:1006A000FF221340FB607B68FF221340DA43FB68A4
:1006B0001340FB600549FB68ED2212021A438E23AA
:1006C0009B00CA50C046BD4604B080BD00800440B7
:1006D00010B5FFF795FD10BD03000B4321D4002991
:1006E00031D00122D207030901E009011209994220
:1006F000FBD9430801E0490052089942FBD900E0C8
:100700004908401A07D35241FAD3014610467047B0
:1007100049084018F7D29218FAD3401801461046FB
:100720007047CB0F00D04942021000D540425340E1
:1007300008B5FFF7D4FF0CBC521000D34042002A8A
:1007400000D549421847F446002000F001F8604700
:100750007047FFFF001BB70000000000C027090022
:1007600090051000C05C1500F0B31A00200B2000AB
:10077000009F2400E0322900C0C62D0050973100B0
:10078000E06735007038390000093D004016400030
:0807900080234300C030460045
:040000030000015D9B
:00000001FF
